{
  "_format": "hh-sol-artifact-1",
  "contractName": "RealEstate",
  "sourceName": "contracts/RealEstate.sol",
  "abi": [
    {
      "inputs": [],
      "stateMutability": "nonpayable",
      "type": "constructor"
    },
    {
      "anonymous": false,
      "inputs": [
        {
          "indexed": true,
          "internalType": "address",
          "name": "owner",
          "type": "address"
        },
        {
          "indexed": true,
          "internalType": "address",
          "name": "approved",
          "type": "address"
        },
        {
          "indexed": true,
          "internalType": "uint256",
          "name": "tokenId",
          "type": "uint256"
        }
      ],
      "name": "Approval",
      "type": "event"
    },
    {
      "anonymous": false,
      "inputs": [
        {
          "indexed": true,
          "internalType": "address",
          "name": "owner",
          "type": "address"
        },
        {
          "indexed": true,
          "internalType": "address",
          "name": "operator",
          "type": "address"
        },
        {
          "indexed": false,
          "internalType": "bool",
          "name": "approved",
          "type": "bool"
        }
      ],
      "name": "ApprovalForAll",
      "type": "event"
    },
    {
      "anonymous": false,
      "inputs": [
        {
          "indexed": true,
          "internalType": "address",
          "name": "from",
          "type": "address"
        },
        {
          "indexed": true,
          "internalType": "address",
          "name": "to",
          "type": "address"
        },
        {
          "indexed": true,
          "internalType": "uint256",
          "name": "tokenId",
          "type": "uint256"
        }
      ],
      "name": "Transfer",
      "type": "event"
    },
    {
      "inputs": [
        {
          "internalType": "address",
          "name": "to",
          "type": "address"
        },
        {
          "internalType": "uint256",
          "name": "tokenId",
          "type": "uint256"
        }
      ],
      "name": "approve",
      "outputs": [],
      "stateMutability": "nonpayable",
      "type": "function"
    },
    {
      "inputs": [
        {
          "internalType": "address",
          "name": "owner",
          "type": "address"
        }
      ],
      "name": "balanceOf",
      "outputs": [
        {
          "internalType": "uint256",
          "name": "",
          "type": "uint256"
        }
      ],
      "stateMutability": "view",
      "type": "function"
    },
    {
      "inputs": [
        {
          "internalType": "uint256",
          "name": "tokenId",
          "type": "uint256"
        }
      ],
      "name": "getApproved",
      "outputs": [
        {
          "internalType": "address",
          "name": "",
          "type": "address"
        }
      ],
      "stateMutability": "view",
      "type": "function"
    },
    {
      "inputs": [
        {
          "internalType": "address",
          "name": "owner",
          "type": "address"
        },
        {
          "internalType": "address",
          "name": "operator",
          "type": "address"
        }
      ],
      "name": "isApprovedForAll",
      "outputs": [
        {
          "internalType": "bool",
          "name": "",
          "type": "bool"
        }
      ],
      "stateMutability": "view",
      "type": "function"
    },
    {
      "inputs": [],
      "name": "mint",
      "outputs": [
        {
          "internalType": "uint256",
          "name": "",
          "type": "uint256"
        }
      ],
      "stateMutability": "nonpayable",
      "type": "function"
    },
    {
      "inputs": [],
      "name": "name",
      "outputs": [
        {
          "internalType": "string",
          "name": "",
          "type": "string"
        }
      ],
      "stateMutability": "view",
      "type": "function"
    },
    {
      "inputs": [
        {
          "internalType": "uint256",
          "name": "tokenId",
          "type": "uint256"
        }
      ],
      "name": "ownerOf",
      "outputs": [
        {
          "internalType": "address",
          "name": "",
          "type": "address"
        }
      ],
      "stateMutability": "view",
      "type": "function"
    },
    {
      "inputs": [
        {
          "internalType": "address",
          "name": "from",
          "type": "address"
        },
        {
          "internalType": "address",
          "name": "to",
          "type": "address"
        },
        {
          "internalType": "uint256",
          "name": "tokenId",
          "type": "uint256"
        }
      ],
      "name": "safeTransferFrom",
      "outputs": [],
      "stateMutability": "nonpayable",
      "type": "function"
    },
    {
      "inputs": [
        {
          "internalType": "address",
          "name": "from",
          "type": "address"
        },
        {
          "internalType": "address",
          "name": "to",
          "type": "address"
        },
        {
          "internalType": "uint256",
          "name": "tokenId",
          "type": "uint256"
        },
        {
          "internalType": "bytes",
          "name": "data",
          "type": "bytes"
        }
      ],
      "name": "safeTransferFrom",
      "outputs": [],
      "stateMutability": "nonpayable",
      "type": "function"
    },
    {
      "inputs": [
        {
          "internalType": "address",
          "name": "operator",
          "type": "address"
        },
        {
          "internalType": "bool",
          "name": "approved",
          "type": "bool"
        }
      ],
      "name": "setApprovalForAll",
      "outputs": [],
      "stateMutability": "nonpayable",
      "type": "function"
    },
    {
      "inputs": [
        {
          "internalType": "bytes4",
          "name": "interfaceId",
          "type": "bytes4"
        }
      ],
      "name": "supportsInterface",
      "outputs": [
        {
          "internalType": "bool",
          "name": "",
          "type": "bool"
        }
      ],
      "stateMutability": "view",
      "type": "function"
    },
    {
      "inputs": [],
      "name": "symbol",
      "outputs": [
        {
          "internalType": "string",
          "name": "",
          "type": "string"
        }
      ],
      "stateMutability": "view",
      "type": "function"
    },
    {
      "inputs": [
        {
          "internalType": "uint256",
          "name": "tokenId",
          "type": "uint256"
        }
      ],
      "name": "tokenURI",
      "outputs": [
        {
          "internalType": "string",
          "name": "",
          "type": "string"
        }
      ],
      "stateMutability": "view",
      "type": "function"
    },
    {
      "inputs": [],
      "name": "totalSupply",
      "outputs": [
        {
          "internalType": "uint256",
          "name": "",
          "type": "uint256"
        }
      ],
      "stateMutability": "view",
      "type": "function"
    },
    {
      "inputs": [
        {
          "internalType": "address",
          "name": "from",
          "type": "address"
        },
        {
          "internalType": "address",
          "name": "to",
          "type": "address"
        },
        {
          "internalType": "uint256",
          "name": "tokenId",
          "type": "uint256"
        }
      ],
      "name": "transferFrom",
      "outputs": [],
      "stateMutability": "nonpayable",
      "type": "function"
    }
  ],
  "bytecode": "0x60806040523480156200001157600080fd5b506040518060400160405280600b81526020017f5265616c204573746174650000000000000000000000000000000000000000008152506040518060400160405280600481526020017f5265616c0000000000000000000000000000000000000000000000000000000081525081600090816200008f919062000324565b508060019081620000a1919062000324565b5050506200040b565b600081519050919050565b7f4e487b7100000000000000000000000000000000000000000000000000000000600052604160045260246000fd5b7f4e487b7100000000000000000000000000000000000000000000000000000000600052602260045260246000fd5b600060028204905060018216806200012c57607f821691505b602082108103620001425762000141620000e4565b5b50919050565b60008190508160005260206000209050919050565b60006020601f8301049050919050565b600082821b905092915050565b600060088302620001ac7fffffffffffffffffffffffffffffffffffffffffffffffffffffffffffffffff826200016d565b620001b886836200016d565b95508019841693508086168417925050509392505050565b6000819050919050565b6000819050919050565b600062000205620001ff620001f984620001d0565b620001da565b620001d0565b9050919050565b6000819050919050565b6200022183620001e4565b6200023962000230826200020c565b8484546200017a565b825550505050565b600090565b6200025062000241565b6200025d81848462000216565b505050565b5b8181101562000285576200027960008262000246565b60018101905062000263565b5050565b601f821115620002d4576200029e8162000148565b620002a9846200015d565b81016020851015620002b9578190505b620002d1620002c8856200015d565b83018262000262565b50505b505050565b600082821c905092915050565b6000620002f960001984600802620002d9565b1980831691505092915050565b6000620003148383620002e6565b9150826002028217905092915050565b6200032f82620000aa565b67ffffffffffffffff8111156200034b576200034a620000b5565b5b62000357825462000113565b6200036482828562000289565b600060209050601f8311600181146200039c576000841562000387578287015190505b62000393858262000306565b86555062000403565b601f198416620003ac8662000148565b60005b82811015620003d657848901518255600182019150602085019450602081019050620003af565b86831015620003f65784890151620003f2601f891682620002e6565b8355505b6001600288020188555050505b505050505050565b612967806200041b6000396000f3fe608060405234801561001057600080fd5b50600436106100f55760003560e01c806342842e0e11610097578063a22cb46511610066578063a22cb46514610286578063b88d4fde146102a2578063c87b56dd146102be578063e985e9c5146102ee576100f5565b806342842e0e146101ec5780636352211e1461020857806370a082311461023857806395d89b4114610268576100f5565b8063095ea7b3116100d3578063095ea7b3146101785780631249c58b1461019457806318160ddd146101b257806323b872dd146101d0576100f5565b806301ffc9a7146100fa57806306fdde031461012a578063081812fc14610148575b600080fd5b610114600480360381019061010f91906117e3565b61031e565b604051610121919061182b565b60405180910390f35b610132610400565b60405161013f91906118d6565b60405180910390f35b610162600480360381019061015d919061192e565b610492565b60405161016f919061199c565b60405180910390f35b610192600480360381019061018d91906119e3565b6104d8565b005b61019c6105ef565b6040516101a99190611a32565b60405180910390f35b6101ba61062c565b6040516101c79190611a32565b60405180910390f35b6101ea60048036038101906101e59190611a4d565b61063d565b005b61020660048036038101906102019190611a4d565b61069d565b005b610222600480360381019061021d919061192e565b6106bd565b60405161022f919061199c565b60405180910390f35b610252600480360381019061024d9190611aa0565b61076e565b60405161025f9190611a32565b60405180910390f35b610270610825565b60405161027d91906118d6565b60405180910390f35b6102a0600480360381019061029b9190611af9565b6108b7565b005b6102bc60048036038101906102b79190611c6e565b6108cd565b005b6102d860048036038101906102d3919061192e565b61092f565b6040516102e591906118d6565b60405180910390f35b61030860048036038101906103039190611cf1565b610a41565b604051610315919061182b565b60405180910390f35b60007f80ac58cd000000000000000000000000000000000000000000000000000000007bffffffffffffffffffffffffffffffffffffffffffffffffffffffff1916827bffffffffffffffffffffffffffffffffffffffffffffffffffffffff191614806103e957507f5b5e139f000000000000000000000000000000000000000000000000000000007bffffffffffffffffffffffffffffffffffffffffffffffffffffffff1916827bffffffffffffffffffffffffffffffffffffffffffffffffffffffff1916145b806103f957506103f882610ad5565b5b9050919050565b60606000805461040f90611d60565b80601f016020809104026020016040519081016040528092919081815260200182805461043b90611d60565b80156104885780601f1061045d57610100808354040283529160200191610488565b820191906000526020600020905b81548152906001019060200180831161046b57829003601f168201915b5050505050905090565b600061049d82610b3f565b6004600083815260200190815260200160002060009054906101000a900473ffffffffffffffffffffffffffffffffffffffff169050919050565b60006104e3826106bd565b90508073ffffffffffffffffffffffffffffffffffffffff168373ffffffffffffffffffffffffffffffffffffffff1603610553576040517f08c379a000000000000000000000000000000000000000000000000000000000815260040161054a90611e03565b60405180910390fd5b8073ffffffffffffffffffffffffffffffffffffffff16610572610b8a565b73ffffffffffffffffffffffffffffffffffffffff1614806105a157506105a08161059b610b8a565b610a41565b5b6105e0576040517f08c379a00000000000000000000000000000000000000000000000000000000081526004016105d790611e95565b60405180910390fd5b6105ea8383610b92565b505050565b60006105fb6007610c4b565b60006106076007610c61565b90506106133382610c6f565b610625816106208361092f565b610e48565b8091505090565b60006106386007610c61565b905090565b61064e610648610b8a565b82610eb5565b61068d576040517f08c379a000000000000000000000000000000000000000000000000000000000815260040161068490611f27565b60405180910390fd5b610698838383610f4a565b505050565b6106b8838383604051806020016040528060008152506108cd565b505050565b6000806002600084815260200190815260200160002060009054906101000a900473ffffffffffffffffffffffffffffffffffffffff169050600073ffffffffffffffffffffffffffffffffffffffff168173ffffffffffffffffffffffffffffffffffffffff1603610765576040517f08c379a000000000000000000000000000000000000000000000000000000000815260040161075c90611f93565b60405180910390fd5b80915050919050565b60008073ffffffffffffffffffffffffffffffffffffffff168273ffffffffffffffffffffffffffffffffffffffff16036107de576040517f08c379a00000000000000000000000000000000000000000000000000000000081526004016107d590612025565b60405180910390fd5b600360008373ffffffffffffffffffffffffffffffffffffffff1673ffffffffffffffffffffffffffffffffffffffff168152602001908152602001600020549050919050565b60606001805461083490611d60565b80601f016020809104026020016040519081016040528092919081815260200182805461086090611d60565b80156108ad5780601f10610882576101008083540402835291602001916108ad565b820191906000526020600020905b81548152906001019060200180831161089057829003601f168201915b5050505050905090565b6108c96108c2610b8a565b83836111b0565b5050565b6108de6108d8610b8a565b83610eb5565b61091d576040517f08c379a000000000000000000000000000000000000000000000000000000000815260040161091490611f27565b60405180910390fd5b6109298484848461131c565b50505050565b606061093a82610b3f565b600060066000848152602001908152602001600020805461095a90611d60565b80601f016020809104026020016040519081016040528092919081815260200182805461098690611d60565b80156109d35780601f106109a8576101008083540402835291602001916109d3565b820191906000526020600020905b8154815290600101906020018083116109b657829003601f168201915b5050505050905060006109e4611378565b905060008151036109f9578192505050610a3c565b600082511115610a2e578082604051602001610a16929190612081565b60405160208183030381529060405292505050610a3c565b610a378461138f565b925050505b919050565b6000600560008473ffffffffffffffffffffffffffffffffffffffff1673ffffffffffffffffffffffffffffffffffffffff16815260200190815260200160002060008373ffffffffffffffffffffffffffffffffffffffff1673ffffffffffffffffffffffffffffffffffffffff16815260200190815260200160002060009054906101000a900460ff16905092915050565b60007f01ffc9a7000000000000000000000000000000000000000000000000000000007bffffffffffffffffffffffffffffffffffffffffffffffffffffffff1916827bffffffffffffffffffffffffffffffffffffffffffffffffffffffff1916149050919050565b610b48816113f7565b610b87576040517f08c379a0000000000000000000000000000000000000000000000000000000008152600401610b7e90611f93565b60405180910390fd5b50565b600033905090565b816004600083815260200190815260200160002060006101000a81548173ffffffffffffffffffffffffffffffffffffffff021916908373ffffffffffffffffffffffffffffffffffffffff160217905550808273ffffffffffffffffffffffffffffffffffffffff16610c05836106bd565b73ffffffffffffffffffffffffffffffffffffffff167f8c5be1e5ebec7d5bd14f71427d1e84f3dd0314c0f7b2291e5b200ac8c7c3b92560405160405180910390a45050565b6001816000016000828254019250508190555050565b600081600001549050919050565b600073ffffffffffffffffffffffffffffffffffffffff168273ffffffffffffffffffffffffffffffffffffffff1603610cde576040517f08c379a0000000000000000000000000000000000000000000000000000000008152600401610cd5906120f1565b60405180910390fd5b610ce7816113f7565b15610d27576040517f08c379a0000000000000000000000000000000000000000000000000000000008152600401610d1e9061215d565b60405180910390fd5b610d3360008383611463565b6001600360008473ffffffffffffffffffffffffffffffffffffffff1673ffffffffffffffffffffffffffffffffffffffff1681526020019081526020016000206000828254610d8391906121ac565b92505081905550816002600083815260200190815260200160002060006101000a81548173ffffffffffffffffffffffffffffffffffffffff021916908373ffffffffffffffffffffffffffffffffffffffff160217905550808273ffffffffffffffffffffffffffffffffffffffff16600073ffffffffffffffffffffffffffffffffffffffff167fddf252ad1be2c89b69c2b068fc378daa952ba7f163c4a11628f55a4df523b3ef60405160405180910390a4610e4460008383611468565b5050565b610e51826113f7565b610e90576040517f08c379a0000000000000000000000000000000000000000000000000000000008152600401610e8790612252565b60405180910390fd5b80600660008481526020019081526020016000209081610eb0919061241e565b505050565b600080610ec1836106bd565b90508073ffffffffffffffffffffffffffffffffffffffff168473ffffffffffffffffffffffffffffffffffffffff161480610f035750610f028185610a41565b5b80610f4157508373ffffffffffffffffffffffffffffffffffffffff16610f2984610492565b73ffffffffffffffffffffffffffffffffffffffff16145b91505092915050565b8273ffffffffffffffffffffffffffffffffffffffff16610f6a826106bd565b73ffffffffffffffffffffffffffffffffffffffff1614610fc0576040517f08c379a0000000000000000000000000000000000000000000000000000000008152600401610fb790612562565b60405180910390fd5b600073ffffffffffffffffffffffffffffffffffffffff168273ffffffffffffffffffffffffffffffffffffffff160361102f576040517f08c379a0000000000000000000000000000000000000000000000000000000008152600401611026906125f4565b60405180910390fd5b61103a838383611463565b611045600082610b92565b6001600360008573ffffffffffffffffffffffffffffffffffffffff1673ffffffffffffffffffffffffffffffffffffffff16815260200190815260200160002060008282546110959190612614565b925050819055506001600360008473ffffffffffffffffffffffffffffffffffffffff1673ffffffffffffffffffffffffffffffffffffffff16815260200190815260200160002060008282546110ec91906121ac565b92505081905550816002600083815260200190815260200160002060006101000a81548173ffffffffffffffffffffffffffffffffffffffff021916908373ffffffffffffffffffffffffffffffffffffffff160217905550808273ffffffffffffffffffffffffffffffffffffffff168473ffffffffffffffffffffffffffffffffffffffff167fddf252ad1be2c89b69c2b068fc378daa952ba7f163c4a11628f55a4df523b3ef60405160405180910390a46111ab838383611468565b505050565b8173ffffffffffffffffffffffffffffffffffffffff168373ffffffffffffffffffffffffffffffffffffffff160361121e576040517f08c379a000000000000000000000000000000000000000000000000000000000815260040161121590612694565b60405180910390fd5b80600560008573ffffffffffffffffffffffffffffffffffffffff1673ffffffffffffffffffffffffffffffffffffffff16815260200190815260200160002060008473ffffffffffffffffffffffffffffffffffffffff1673ffffffffffffffffffffffffffffffffffffffff16815260200190815260200160002060006101000a81548160ff0219169083151502179055508173ffffffffffffffffffffffffffffffffffffffff168373ffffffffffffffffffffffffffffffffffffffff167f17307eab39ab6107e8899845ad3d59bd9653f200f220920489ca2b5937696c318360405161130f919061182b565b60405180910390a3505050565b611327848484610f4a565b6113338484848461146d565b611372576040517f08c379a000000000000000000000000000000000000000000000000000000000815260040161136990612726565b60405180910390fd5b50505050565b606060405180602001604052806000815250905090565b606061139a82610b3f565b60006113a4611378565b905060008151116113c457604051806020016040528060008152506113ef565b806113ce846115f4565b6040516020016113df929190612081565b6040516020818303038152906040525b915050919050565b60008073ffffffffffffffffffffffffffffffffffffffff166002600084815260200190815260200160002060009054906101000a900473ffffffffffffffffffffffffffffffffffffffff1673ffffffffffffffffffffffffffffffffffffffff1614159050919050565b505050565b505050565b600061148e8473ffffffffffffffffffffffffffffffffffffffff16611754565b156115e7578373ffffffffffffffffffffffffffffffffffffffff1663150b7a026114b7610b8a565b8786866040518563ffffffff1660e01b81526004016114d9949392919061279b565b6020604051808303816000875af192505050801561151557506040513d601f19601f8201168201806040525081019061151291906127fc565b60015b611597573d8060008114611545576040519150601f19603f3d011682016040523d82523d6000602084013e61154a565b606091505b50600081510361158f576040517f08c379a000000000000000000000000000000000000000000000000000000000815260040161158690612726565b60405180910390fd5b805181602001fd5b63150b7a0260e01b7bffffffffffffffffffffffffffffffffffffffffffffffffffffffff1916817bffffffffffffffffffffffffffffffffffffffffffffffffffffffff1916149150506115ec565b600190505b949350505050565b60606000820361163b576040518060400160405280600181526020017f3000000000000000000000000000000000000000000000000000000000000000815250905061174f565b600082905060005b6000821461166d57808061165690612829565b915050600a8261166691906128a0565b9150611643565b60008167ffffffffffffffff81111561168957611688611b43565b5b6040519080825280601f01601f1916602001820160405280156116bb5781602001600182028036833780820191505090505b5090505b60008514611748576001826116d49190612614565b9150600a856116e391906128d1565b60306116ef91906121ac565b60f81b81838151811061170557611704612902565b5b60200101907effffffffffffffffffffffffffffffffffffffffffffffffffffffffffffff1916908160001a905350600a8561174191906128a0565b94506116bf565b8093505050505b919050565b6000808273ffffffffffffffffffffffffffffffffffffffff163b119050919050565b6000604051905090565b600080fd5b600080fd5b60007fffffffff0000000000000000000000000000000000000000000000000000000082169050919050565b6117c08161178b565b81146117cb57600080fd5b50565b6000813590506117dd816117b7565b92915050565b6000602082840312156117f9576117f8611781565b5b6000611807848285016117ce565b91505092915050565b60008115159050919050565b61182581611810565b82525050565b6000602082019050611840600083018461181c565b92915050565b600081519050919050565b600082825260208201905092915050565b60005b83811015611880578082015181840152602081019050611865565b60008484015250505050565b6000601f19601f8301169050919050565b60006118a882611846565b6118b28185611851565b93506118c2818560208601611862565b6118cb8161188c565b840191505092915050565b600060208201905081810360008301526118f0818461189d565b905092915050565b6000819050919050565b61190b816118f8565b811461191657600080fd5b50565b60008135905061192881611902565b92915050565b60006020828403121561194457611943611781565b5b600061195284828501611919565b91505092915050565b600073ffffffffffffffffffffffffffffffffffffffff82169050919050565b60006119868261195b565b9050919050565b6119968161197b565b82525050565b60006020820190506119b1600083018461198d565b92915050565b6119c08161197b565b81146119cb57600080fd5b50565b6000813590506119dd816119b7565b92915050565b600080604083850312156119fa576119f9611781565b5b6000611a08858286016119ce565b9250506020611a1985828601611919565b9150509250929050565b611a2c816118f8565b82525050565b6000602082019050611a476000830184611a23565b92915050565b600080600060608486031215611a6657611a65611781565b5b6000611a74868287016119ce565b9350506020611a85868287016119ce565b9250506040611a9686828701611919565b9150509250925092565b600060208284031215611ab657611ab5611781565b5b6000611ac4848285016119ce565b91505092915050565b611ad681611810565b8114611ae157600080fd5b50565b600081359050611af381611acd565b92915050565b60008060408385031215611b1057611b0f611781565b5b6000611b1e858286016119ce565b9250506020611b2f85828601611ae4565b9150509250929050565b600080fd5b600080fd5b7f4e487b7100000000000000000000000000000000000000000000000000000000600052604160045260246000fd5b611b7b8261188c565b810181811067ffffffffffffffff82111715611b9a57611b99611b43565b5b80604052505050565b6000611bad611777565b9050611bb98282611b72565b919050565b600067ffffffffffffffff821115611bd957611bd8611b43565b5b611be28261188c565b9050602081019050919050565b82818337600083830152505050565b6000611c11611c0c84611bbe565b611ba3565b905082815260208101848484011115611c2d57611c2c611b3e565b5b611c38848285611bef565b509392505050565b600082601f830112611c5557611c54611b39565b5b8135611c65848260208601611bfe565b91505092915050565b60008060008060808587031215611c8857611c87611781565b5b6000611c96878288016119ce565b9450506020611ca7878288016119ce565b9350506040611cb887828801611919565b925050606085013567ffffffffffffffff811115611cd957611cd8611786565b5b611ce587828801611c40565b91505092959194509250565b60008060408385031215611d0857611d07611781565b5b6000611d16858286016119ce565b9250506020611d27858286016119ce565b9150509250929050565b7f4e487b7100000000000000000000000000000000000000000000000000000000600052602260045260246000fd5b60006002820490506001821680611d7857607f821691505b602082108103611d8b57611d8a611d31565b5b50919050565b7f4552433732313a20617070726f76616c20746f2063757272656e74206f776e6560008201527f7200000000000000000000000000000000000000000000000000000000000000602082015250565b6000611ded602183611851565b9150611df882611d91565b604082019050919050565b60006020820190508181036000830152611e1c81611de0565b9050919050565b7f4552433732313a20617070726f76652063616c6c6572206973206e6f7420746f60008201527f6b656e206f776e6572206e6f7220617070726f76656420666f7220616c6c0000602082015250565b6000611e7f603e83611851565b9150611e8a82611e23565b604082019050919050565b60006020820190508181036000830152611eae81611e72565b9050919050565b7f4552433732313a2063616c6c6572206973206e6f7420746f6b656e206f776e6560008201527f72206e6f7220617070726f766564000000000000000000000000000000000000602082015250565b6000611f11602e83611851565b9150611f1c82611eb5565b604082019050919050565b60006020820190508181036000830152611f4081611f04565b9050919050565b7f4552433732313a20696e76616c696420746f6b656e2049440000000000000000600082015250565b6000611f7d601883611851565b9150611f8882611f47565b602082019050919050565b60006020820190508181036000830152611fac81611f70565b9050919050565b7f4552433732313a2061646472657373207a65726f206973206e6f74206120766160008201527f6c6964206f776e65720000000000000000000000000000000000000000000000602082015250565b600061200f602983611851565b915061201a82611fb3565b604082019050919050565b6000602082019050818103600083015261203e81612002565b9050919050565b600081905092915050565b600061205b82611846565b6120658185612045565b9350612075818560208601611862565b80840191505092915050565b600061208d8285612050565b91506120998284612050565b91508190509392505050565b7f4552433732313a206d696e7420746f20746865207a65726f2061646472657373600082015250565b60006120db602083611851565b91506120e6826120a5565b602082019050919050565b6000602082019050818103600083015261210a816120ce565b9050919050565b7f4552433732313a20746f6b656e20616c7265616479206d696e74656400000000600082015250565b6000612147601c83611851565b915061215282612111565b602082019050919050565b600060208201905081810360008301526121768161213a565b9050919050565b7f4e487b7100000000000000000000000000000000000000000000000000000000600052601160045260246000fd5b60006121b7826118f8565b91506121c2836118f8565b92508282019050808211156121da576121d961217d565b5b92915050565b7f45524337323155524953746f726167653a2055524920736574206f66206e6f6e60008201527f6578697374656e7420746f6b656e000000000000000000000000000000000000602082015250565b600061223c602e83611851565b9150612247826121e0565b604082019050919050565b6000602082019050818103600083015261226b8161222f565b9050919050565b60008190508160005260206000209050919050565b60006020601f8301049050919050565b600082821b905092915050565b6000600883026122d47fffffffffffffffffffffffffffffffffffffffffffffffffffffffffffffffff82612297565b6122de8683612297565b95508019841693508086168417925050509392505050565b6000819050919050565b600061231b612316612311846118f8565b6122f6565b6118f8565b9050919050565b6000819050919050565b61233583612300565b61234961234182612322565b8484546122a4565b825550505050565b600090565b61235e612351565b61236981848461232c565b505050565b5b8181101561238d57612382600082612356565b60018101905061236f565b5050565b601f8211156123d2576123a381612272565b6123ac84612287565b810160208510156123bb578190505b6123cf6123c785612287565b83018261236e565b50505b505050565b600082821c905092915050565b60006123f5600019846008026123d7565b1980831691505092915050565b600061240e83836123e4565b9150826002028217905092915050565b61242782611846565b67ffffffffffffffff8111156124405761243f611b43565b5b61244a8254611d60565b612455828285612391565b600060209050601f8311600181146124885760008415612476578287015190505b6124808582612402565b8655506124e8565b601f19841661249686612272565b60005b828110156124be57848901518255600182019150602085019450602081019050612499565b868310156124db57848901516124d7601f8916826123e4565b8355505b6001600288020188555050505b505050505050565b7f4552433732313a207472616e736665722066726f6d20696e636f72726563742060008201527f6f776e6572000000000000000000000000000000000000000000000000000000602082015250565b600061254c602583611851565b9150612557826124f0565b604082019050919050565b6000602082019050818103600083015261257b8161253f565b9050919050565b7f4552433732313a207472616e7366657220746f20746865207a65726f2061646460008201527f7265737300000000000000000000000000000000000000000000000000000000602082015250565b60006125de602483611851565b91506125e982612582565b604082019050919050565b6000602082019050818103600083015261260d816125d1565b9050919050565b600061261f826118f8565b915061262a836118f8565b92508282039050818111156126425761264161217d565b5b92915050565b7f4552433732313a20617070726f766520746f2063616c6c657200000000000000600082015250565b600061267e601983611851565b915061268982612648565b602082019050919050565b600060208201905081810360008301526126ad81612671565b9050919050565b7f4552433732313a207472616e7366657220746f206e6f6e20455243373231526560008201527f63656976657220696d706c656d656e7465720000000000000000000000000000602082015250565b6000612710603283611851565b915061271b826126b4565b604082019050919050565b6000602082019050818103600083015261273f81612703565b9050919050565b600081519050919050565b600082825260208201905092915050565b600061276d82612746565b6127778185612751565b9350612787818560208601611862565b6127908161188c565b840191505092915050565b60006080820190506127b0600083018761198d565b6127bd602083018661198d565b6127ca6040830185611a23565b81810360608301526127dc8184612762565b905095945050505050565b6000815190506127f6816117b7565b92915050565b60006020828403121561281257612811611781565b5b6000612820848285016127e7565b91505092915050565b6000612834826118f8565b91507fffffffffffffffffffffffffffffffffffffffffffffffffffffffffffffffff82036128665761286561217d565b5b600182019050919050565b7f4e487b7100000000000000000000000000000000000000000000000000000000600052601260045260246000fd5b60006128ab826118f8565b91506128b6836118f8565b9250826128c6576128c5612871565b5b828204905092915050565b60006128dc826118f8565b91506128e7836118f8565b9250826128f7576128f6612871565b5b828206905092915050565b7f4e487b7100000000000000000000000000000000000000000000000000000000600052603260045260246000fdfea264697066735822122010c1c236b491a5dadc942ddc56bb1fe8866051fc52dfb0849c6e5a6a7a1de41e64736f6c63430008110033",
  "linkReferences": {},
  "deployedLinkReferences": {}
}